:1000000000040010C5010000000000000000000016
:1000100000000000000000000000000000000000E0
:1000200010B500F021F800F059F80B4800F088F8FE
:100030002A2000F0A2F8094C201C00F081F80848A2
:1000400000F07EF80821074800F0AEF8201C00F010
:1000500077F8002010BDC046DC020000F802000066
:10006000FB020000EFBEADDE074B8022D96F92008D
:100070000A43DA67054B00220B211A67D9609A60A0
:1000800001225A607047C04604800440004001408D
:10009000014B98687047C04600400140024B9B6886
:1000A0009842FBD87047C04600400140034A044BC9
:1000B0008020D1588143D1507047C0460000015084
:1000C000FC3F0000034A044B8020D1580143D1502B
:1000D0007047C04600000150FC3F000008B5054ACB
:1000E00080231B02D15880200143D150FFF7EAFF43
:1000F00008BDC04600000150F8B5061CFFF7C8FF58
:10010000051C2C1C1A34FFF7D1FF201CFFF7C6FF7B
:100110002F1CEA37F30702D4FFF7C8FF01E0FFF70F
:10012000D1FF1A34201C7608FFF7B8FFBC42F1D18A
:10013000FFF7C8FF8F235B00E818FFF7AFFFF8BD9C
:1001400010B5041C2078002803D0FFF7D5FF013438
:10015000F8E710BD10B50A21041C00F05DF8002876
:1001600001D0FFF7F7FF201C0A2100F0ABF8302088
:10017000401AC0B2FFF7C0FF10BD10B5041E03DA6D
:100180002D20FFF7B9FF00E04442201CFFF7E2FFFB
:1001900010BD08B50F231840092801DC303000E0FD
:1001A0003730FFF7A9FF08BD70B5061C0C1C8D0089
:1001B000043D002C05DD301CE840013CFFF7E9FF61
:1001C000F6E770BD10B50F4B0F4A191D043B934263
:1001D00003D000221A600B1CF6E70C4A0C490023DE
:1001E000891A89080131890004338B4207D0094CF0
:1001F000D0181C19043C246804380460F4E7FFF7A5
:100200000FFFFEE7040000100000001000000010C7
:100210000000001004030000002941D010B4041CA9
:100220004C40A44601230022002900D54942002861
:1002300000D5404288422CD301242407A14204D295
:10024000814202D209011B01F8E7E400A14204D275
:10025000814202D249005B00F8E7884201D3401A8C
:100260001A434C08A04202D3001B5C0822438C08AE
:10027000A04202D3001B9C082243CC08A04202D318
:10028000001BDC082243002803D01B0901D0090908
:10029000E3E7101C6446002C00D5404210BC7047B8
:1002A000002806D003DB0020C043400801E0802086
:1002B000000607B4024802A14018029003BDC046E0
:1002C000190000000029EBD003B5FFF7A7FF0EBC13
:1002D0004243891A1847C0467047C04648656C6C4F
:1002E0006F20776F726C642C2074686520616E7368
:1002F00077657220697320002E0A00596F7520619E
:040300007265200002
:04000003000001C533
:00000001FF
