:1000000000060010DD0300000000000000000000FA
:1000100000000000000000000000000000000000E0
:10002000044B002803D0012252421A6000E01860FD
:100030007047C0462000015010B5041C00F058F96C
:10004000001900F05BF910BD38B5051C08247F23AA
:10005000281C9843FFF7E4FF054B012252421A6027
:100060006D000022013CEDB21A609442EFD138BD20
:100070004000015010B5054A054C00231360236071
:10008000FFF7E2FF01235B42236010BD1000015027
:100090000400015038B5054B01256D42044C1D602C
:1000A00000232360FFF7D0FF256038BD100001500A
:1000B0000400015038B5802318430D1C141CFFF7B1
:1000C000D9FF40202843FFF7D5FF201CFFF7E2FFB0
:1000D00038BD0000084B10B58022DC6F520222436D
:1000E000DA6702680724A24311430160D96F034A0B
:1000F0000A40DA6710BDC04604800440FFFFFEFFDF
:1001000070B524480121FFF7E5FF23480121FFF7DF
:10011000E1FF22480121FFF7DDFF21480121FFF720
:10012000D9FF20480021FFF7D5FF1F4A80231B027B
:10013000D1581F200143D1501C4B00261E600120C6
:100140000021FFF779FF0125194B6D42194C1D6005
:1001500001200021FFF770FF266001200021FFF73A
:100160006BFF012000212560FFF766FF2120FFF7CC
:1001700081FFC820FFF77EFF0620FFF77BFF1320DB
:10018000FFF778FF2020FFF775FF0C20FFF772FFC5
:1001900070BDC046784004407C400440804004402C
:1001A0009040044094400440000001504000015041
:1001B000040001500800015038B5532819D82F29E0
:1001C00017D8CD0854236B430724214001248C40C9
:1001D000211C1B18074C002A03D0E25C1143E15498
:1001E00002E0E25C8A43E254C0B2E9B2E25CFFF7AB
:1001F00061FF38BD0400001010B58020FFF73AFF02
:100200004020FFF737FF0024054B0020E31818704B
:10021000FFF740FF0134FC235B009C42F4D110BD8A
:1002200004000010F0B587B000920CAA1278009D6F
:1002300005925A1AD7172C1AD6197E40E51703963D
:100240000493F61763196B40B446039DDE0F6746AF
:100250009D4277410397002F03D1131C221C1C1CC5
:1002600004E0049E031C0096081C191C012701973A
:10027000002A02DA7B425242019301250295002CAA
:1002800002DA6B426442029364005700E71B049455
:100290000D1CBC18061C009A964215D0039A002A21
:1002A00002D0311C281C01E0291C301C059AFFF7E4
:1002B00083FF002C03DD029BE419ED1801E0049A92
:1002C000A418019BF618E6E707B0F0BD064B8022A4
:1002D000D96F92000A43DA67044B00221A670B2297
:1002E000DA6001225A6070470480044000400140F7
:1002F000014B98687047C04600400140024B9B6824
:100300009842FBD87047C04600400140044B054866
:100310001A685043044A801818604000400C704727
:1003200000000010FD430300C39E2600F0B585B019
:10033000FFF7CCFFFFF7E4FEFFF75EFF0024201C71
:1003400000210122FFF738FF201C2F210122013458
:10035000FFF732FF542CF2D10024211C002001228F
:10036000FFF72AFF211C532001220134FFF724FF4D
:10037000302CF2D11E24FFF7C9FF071CFFF7C6FF80
:10038000051CFFF7C3FF061CFFF7C0FF55210390B4
:10039000381C00F091F8301C0F1C312100F08CF853
:1003A000281C0E1C552100F087F803980D1C3121E4
:1003B00000F082F801220B1C0092311C2A1C381C10
:1003C000FFF730FFFFF794FF034B013CC018FFF726
:1003D00095FF002CCFD1AFE720A1070010B50F4B40
:1003E0000F4A191D043B934203D000221A600B1CD4
:1003F000F6E70C4A0C490023891A89080131890063
:1004000004338B4207D0094CD0181C19043C2468D3
:1004100004380460F4E7FFF789FFFEE704000010EA
:10042000FC0100100000001000000010D0040000CB
:10043000002934D00123002210B488422CD3012497
:100440002407A14204D2814202D209011B01F8E72C
:10045000E400A14204D2814202D249005B00F8E7E5
:10046000884201D3401A1A434C08A04202D3001B11
:100470005C0822438C08A04202D3001B9C08224344
:10048000CC08A04202D3001BDC082243002803D082
:100490001B0901D00909E3E7101C10BC70470028B4
:1004A00001D00020C04307B4024802A140180290C6
:1004B00003BDC046190000000029F0D003B5FFF7C6
:1004C000B9FF0EBC4243891A1847C0467047C04660
:04000003000003DD19
:00000001FF
