:1000000000040010FD0000000000000000000000DF
:1000100000000000000000000000000000000000E0
:10002000034A044B1020D1588143D1507047C04639
:1000300000000150FC3F0000034A044B1020D1583F
:100040000143D1507047C04600000150FC3F000002
:1000500008B5054A80231B02D15810200143D15016
:10006000FFF7DEFF08BDC0460000015010B5041CBC
:10007000FFF7E2FF00F034F8001900F037F8FFF75F
:10008000CFFF10BD10B5FFF7E3FF00F015F8FA241D
:100090006400201CFFF7EAFF00F022F8044B0A344A
:1000A000C01800F023F8034B9C42F2D9EFE7C0469A
:1000B000A8610000C3090000074B8022D96F92009D
:1000C0000A43DA67054B00220B211A67D9609A6050
:1000D00001225A607047C04604800440004001403D
:1000E000014B98687047C04600400140024B9B6836
:1000F0009842FBD87047C0460040014010B50F4BF6
:100100000F4A191D043B934203D000221A600B1CB6
:10011000F6E70C4A0C490023891A89080131890045
:1001200004338B4207D0094CD0181C19043C2468B6
:1001300004380460F4E7FFF7A5FFFEE704000010B1
:10014000000000100000001000000010500100002E
:04000003000000FDFC
:00000001FF
