:10000000000400107100000000000000000000006B
:1000100000000000000000000000000000000000E0
:10002000104B8022120213B59958102001439950A9
:100030000D4A1020995801439950002101910198CF
:100040000A49884202DC01990131F7E798581024E7
:10005000A043985000220192019A8A42E8DC019A5A
:100060000132F8E700000150FC3F0000DF9304007C
:1000700010B50F4B0F4A191D043B934203D00022C9
:100080001A600B1CF6E70C4A0C490023891A8908F0
:100090000131890004338B4207D0094CD0181C1958
:1000A000043C246804380460F4E7FFF7B9FFFEE776
:1000B00004000010000000100000001000000010FC
:0400C000C400000078
:040000030000007188
:00000001FF
