:1000000000040010B5000000000000000000000027
:1000100000000000000000000000000000000000E0
:10002000074B8022D96F92000A43DA67054B002202
:100030000B211A67D9609A6001225A607047C04646
:100040000480044000400140014B98687047C0465E
:1000500000400140F8B5144E80231B02F2582021C5
:100060000A43F250FFF7DCFFFFF7EEFF0F4B041CD3
:10007000C7188E23DB00E518FFF7E6FFA842FBD385
:100080000B4D20227359134373518E231B01E41827
:10009000FFF7DAFFA042FBD3735920229343735139
:1000A000BC42E6D10020F8BD0000015000410F0025
:1000B000FC3F000010B50F4B0F4A191D043B934243
:1000C00003D000221A600B1CF6E70C4A0C490023EF
:1000D000891A89080131890004338B4207D0094C01
:1000E000D0181C19043C246804380460F4E7FFF7B6
:1000F000B1FFFEE704000010000000100000001037
:080100000000001008010000DE
:04000003000000B544
:00000001FF
