:1000000000040010ED0200000000000000000000ED
:1000100000000000000000000000000000000000E0
:1000200008B500F0A7F800F04FF800F0CFF8002076
:10003000062100F025F90020062100F03BF90028F8
:10004000F9D0134800F0B8F800F004F900F09EFC75
:100050000A4B094A00F0D6F9094A0A4B00F0D2F9D6
:10006000094A0A4B00F0CEF900F05CFC00F075F88C
:10007000E1E7C046C046C046A4703D0AD7A30A4087
:100080000000000000005940000000000000503F48
:1000900020A10700C046C046034A044B8020D15827
:1000A0008143D1507047C04600000150FC3F000022
:1000B000034A044B8020D1580143D1507047C046B9
:1000C00000000150FC3F000008B5074A80231B02D6
:1000D000D15880200143D150D15840208143D15084
:1000E000FFF7E6FF08BDC04600000150F8B5061C4A
:1000F00000F054F8051C2C1C1A34FFF7CDFF201C0F
:1001000000F052F82F1CEA37F30702D4FFF7C4FFC0
:1001100001E0FFF7CDFF1A34201C760800F044F808
:10012000BC42F1D1FFF7C4FF8F235B00E81800F059
:100130003BF8F8BD10B50A21041C00F001F90028B5
:1001400001D0FFF7F7FF201C0A2100F04FF9302003
:10015000401AC0B2FFF7CAFF10BD10B5041E03DA83
:100160002D20FFF7C3FF00E04442201CFFF7E2FF11
:1001700010BD0000074B8022D96F92000A43DA6756
:10018000054B00220B211A67D9609A6001225A6040
:100190007047C0460480044000400140014B98680D
:1001A0007047C04600400140024B9B689842FBD814
:1001B0007047C0460040014008B5034B9B68C0181B
:1001C000FFF7F2FF08BDC046004001401C4A8021F5
:1001D000131DD86F8901014310B5D967D86F8021ED
:1001E00049020143D967174B0820996F80240143C6
:1001F0009967996F072081439967986F0221084397
:100200009867986FA04398678E238B40D05810242E
:10021000A043D0500C4BFF201A6882431A601A6822
:10022000114319601968094A0A401A601968802246
:1002300092000A431A601968054A0A401A6010BD04
:10024000008004400040044000C00140FF00FFFF68
:10025000FFFFFEFF084B094A19680A401A60196837
:10026000802252040A431A605A68002AFCDB024BBF
:1002700058680004800D704700C00140FFFFFFF880
:1002800010B5002809D1A0228023D2051B02D45822
:10029000012088408443211C08E0012807D1044A3A
:1002A00080231B02D4588840211C8143D15010BDAB
:1002B00000000150031E09D10A4BA022D205D058DC
:1002C00001238B401840411E884109E0FF20012B8B
:1002D00007D1044A04488B4080581840431E984177
:1002E000C0B27047FC3F00000000015010B50F4B3A
:1002F0000F4A191D043B934203D000221A600B1CC5
:10030000F6E70C4A0C490023891A89080131890053
:1003100004338B4207D0094CD0181C19043C2468C4
:1003200004380460F4E7FFF77BFEFEE704000010EA
:10033000000000100000001000000010700A000013
:10034000002941D010B4041C4C40A44601230022D3
:10035000002900D54942002800D5404288422CD3CC
:1003600001242407A14204D2814202D209011B01C7
:10037000F8E7E400A14204D2814202D249005B00C6
:10038000F8E7884201D3401A1A434C08A04202D32E
:10039000001B5C0822438C08A04202D3001B9C086F
:1003A0002243CC08A04202D3001BDC0822430028D1
:1003B00003D01B0901D00909E3E7101C6446002C97
:1003C00000D5404210BC7047002806D003DB002057
:1003D000C043400801E08020000607B4024802A1A3
:1003E0004018029003BDC046190000000029EBD060
:1003F00003B5FFF7A7FF0EBC4243891A1847C04652
:100400007047C046F0B5564644465F464D46F0B488
:100410001F1C0B031B0B9A464B0087B0041C804625
:100420005B0DC80F161C02938146002B68D0694BE8
:100430000299994232D08022534652031A43D20085
:10044000630F1A439246644AE0008918804602917D
:10045000002400253B031B0B9B467800FB0F321C3E
:10046000400D039300D175E05A4B984269D0802229
:10047000594652030A43730FD2001A43564B934610
:10048000C018F200002303994E4671401C430F2C04
:1004900000D9A9E0514EA4003459A74653461C4345
:1004A00000D087E00025AA46A84608240225D1E707
:1004B0004946022D6CD0032D00D117E2012D00D04A
:1004C00058E10D40EDB20024A9460023A0460020CB
:1004D000002125030A0D1C052D0B1205404B2A4354
:1004E000134023435B004C465B08E207191C40465F
:1004F000114307B03CBC90469946A246AB46F0BDBE
:100500005346234350D05346002B00D184E150463C
:1005100000F070FA031E272B00DD76E128210D1A6A
:10052000211C083B5246E9409A400D1C1543221CF1
:100530009A40AA4690462B4B00241B1A0293002592
:1005400088E75B461E430323002E9CD1B34600225E
:10055000022398E75B46334321D05846002800D158
:100560004EE100F047FA272800DD42E128210F1A6A
:10057000021C311C083A5B46F94093400F1C1F4394
:10058000331C9340BB461A1C164B181A00237AE7FB
:1005900001230B4000249946A0460E4B97E7002705
:1005A000BB46002201236EE7002104248A468846C8
:1005B00001254FE70C2403254CE700258024A9469C
:1005C0002403A846034B82E7DA46904603991D1C94
:1005D0006FE7C046FF07000001FCFFFF300A000084
:1005E000FFFF0F800DFCFFFF029F160C38180490D0
:1005F0004046070C0004000C1204120C031C534369
:10060000041C3D1C7443554398463B1C73436419BA
:10061000A44644460293230C63449D4204D9029DA0
:10062000802464022D1902951D0C039545462C0467
:100630001B04240C1C1905945C46230C051C584310
:100640002404240C8446381C604365435F43814680
:10065000CC44280C6044BB46814502D980277F02E8
:10066000BB442D04070C2D0C000440195546BC4614
:100670002F04E3448446280C3D0C2F1C5743B846F6
:100680002F1C77434243B94647463F0C9144BA4634
:10069000D14446434A4502D980225202B6184F46F9
:1006A0003A0CB6183A0447463F043F0CB8462F1C94
:1006B00067435D434443584365190190380C2D1836
:1006C0004244B846AC4204D9019880235B02C0186A
:1006D0000190039C029F201C6044C0196045A44106
:1006E00047466442A4462B043C049946240C4C44DF
:1006F000A046D8448018C246E244904292415746F0
:1007000052429146F219E245BF417F424B46BC46F8
:10071000D845BF41D4187F4263461F432D0C7F1933
:10072000B24292414C45AD4152426D421543019E49
:100730007D19AB19E20D5B02059F134342023A4358
:100740009A46531E9A41C30D101C1843640220435D
:1007500080465046C0010DD5454601225646049CB0
:100760006B082A401A43F30701341A4376080494AD
:100770009046B246049E634FF319002B61DD40465C
:1007800040070BD00F2244462240042A06D042469E
:100790000432424580414042824490465546ED0134
:1007A00007D5594B5646049F80201E40C000B246D4
:1007B0003B18564A934200DDEAE644465546E208B5
:1007C0006807104301226C025B050A408046240B37
:1007D0005B0D91467BE6DA4690461D1C69E6802457
:1007E0002403574627421CD13C432403240B484B87
:1007F0006DE6031C283B311C99408B460022C3E662
:10080000301C00F0F7F82030ADE6283B211C994061
:1008100000228A4690468EE6201C00F0EBF820303D
:1008200078E65846204207D1044303992403240B59
:1008300089469046364B4AE63C432403240B344B0E
:1008400045E6344B049E9B1B382B06DD01230B40F1
:1008500000249946A046002339E61F2B25DC049C82
:100860002D4D46466019524644468640DC40824043
:100870005746301C2243DF40441EA04102433B1C2C
:10088000540709D00F201040042805D0101D9042B5
:10089000924152429B18021C1D021AD501230B40A3
:1008A00000249946A046012311E61C48049C5546A5
:1008B000001BC540281C202B16D0194E5746A219E4
:1008C00097403A1C43461A43531E9A410243002361
:1008D000D6E758075B02D2081C0B01230B401043DC
:1008E000994680460023F2E50022EBE780242403AA
:1008F00050460123044319402403240B8946044B2A
:10090000E5E5C046FF030000FFFFFFFEFE07000015
:10091000FF07000002FCFFFF1E040000E2FBFFFFD8
:100920003E04000070B50B1C124C09030E0B59005D
:10093000021C490DDD0F0020A14211DD0E4881424D
:100940000FDC8020400306430C48401A1F280BDDB3
:100950000B4A521AD640321C5042002D00D1101CB6
:1009600070BD084BE818FBE7074BC240C9188E4022
:100970003243F1E7FE0300001D04000033040000D1
:1009800013040000FFFFFF7FEDFBFFFF10B5041E07
:1009900028D000F02FF8154A121A0A2815DD0B3856
:1009A000844024035205240B520D00230020002113
:1009B0002403181C0B0D240B1B0523430C4C1205A0
:1009C0001C4014436400610810BD031C1533211C36
:1009D00099400B1C0B21081AC44024035205240B18
:1009E000520DE3E7002200240023DFE71E0400008D
:1009F000FFFF0F801C2101231B04984201D3000C30
:100A000010391B0A984201D3000A08391B09984281
:100A100001D30009043902A2105C40187047C04697
:100A200004030202010101010000000000000000B7
:100A3000E8050000D6070000D6070000C805000042
:100A4000B2040000B2040000BA050000C8050000AE
:100A5000B2040000BA050000B2040000C80500009E
:100A6000B0040000B0040000B0040000DE07000085
:04000003000002ED0A
:00000001FF
