:1000000000040010BD00000000000000000000001F
:1000100000000000000000000000000000000000E0
:1000200037B5124B802212029C5820252C439C503D
:1000300000281ADD0E4A20259C582C439C50002491
:100040000194019C8C4202DA019C0134F8E79C582F
:100050002025AC439C5000220192019A8A4202DA88
:10006000019A0132F8E70138E2E737BD000001509C
:10007000FC3F000010B5642400280ED0FA20400098
:10008000011CFFF7CDFFC820C82140008900013CBA
:10009000FFF7C6FF002CF1D10AE06420011CFFF736
:1000A000BFFF013C64209621FFF7BAFF002CF4D17A
:1000B00010BD08B50120FFF7DDFFFBE710B50F4BC2
:1000C0000F4A191D043B934203D000221A600B1CF7
:1000D000F6E70C4A0C490023891A89080131890086
:1000E00004338B4207D0094CD0181C19043C2468F7
:1000F00004380460F4E7FFF7DCFFFEE704000010BB
:1001000000000010000000100000001010010000AE
:04000003000000BD3C
:00000001FF
